S017000065506F737469744669726D776172652E73726563E8
S113000010C079C029C028C027C026C025C024C07C
S113001023C022C021C020C01FC01EC01DC01CC0E0
S11300201BC011241FBECFE5D2E0DEBFCDBF10E060
S1130030A0E6B0E0ECE8F1E002C005900D92A03734
S1130040B107D9F720E0A0E7B0E001C01D92A53DBB
S1130050B207E1F774D098C0D3CFB99AC19A82E0BD
S113006080BF83BF87E686BF089598B7926098BF24
S113007008B601FEFDCF98B7926098BFC19808B644
S113008001FEFDCF98B7926098BF28E030E080FD74
S113009002C0C19801C0C19A869508B601FEFDCF81
S11300A098B7926098BF215031092115310579F72D
S11300B0C19A08B601FEFDCF88B7826088BF08B632
S11300C001FEFDCF88B7826088BF0895CF93DF9388
S11300D0EC018881882329F02196C7DF8991811159
S11300E0FCCFDF91CF91089585B7836085BF8BB72F
S11300F080648BBF08951F920F920FB60F92112444
S11301002F938F939F93EF93FF93E0E7F0E0208189
S113011081E0820F80838CB59DB5E22FF0E0EE0F75
S1130120FF1FE059FF4F92838183FF91EF919F91CD
S11301308F912F910F900FBE0F901F9018958DDF08
S1130140D3DF85E08EBDD09AD19A7894C0E7D0E011
S11301501882D89AD9988FEC97E00197F1F700C0EC
S11301600000D898D99AF8941DBC1CBC78949FE7D9
S113017028E381E0915020408040E1F700C0000076
S10F018080E690E0A3DFE4CFF894FFCF0A
S113018C3C313A312C332C353B323A322C343E0050
S9030000FC
